:100000000AC011C010C00FC00EC00DC00CC00BC084
:100010000AC009C008C011271FBFCFE5D0E0DEBF6E
:10002000CDBF02D08EC1ECCFCF93DF93CDB7DEB77B
:10003000C850D10B0FB7F894DEBF0FBFCDBF48ED4E
:100040004CBF16BF4FEF49BF41E041B9F2E050E06D
:10005000E4EA40E0AC2FBD2FAF5FBF4FCB5FDF4F77
:10006000B883AA93C450D040AD5FCA5FDF4FA88366
:10007000C650D040CF5FDF4F1883C150D040CE5F15
:10008000DF4F1883C250D040CD5FDF4F1883C3507D
:10009000D0405F5FF23019F05D3308F0F2E0852F59
:1000A0006CE343D1B1E0C85FDF4FB883C850D040A4
:1000B0009F3128F4C85FDF4F1883C850D040019BA0
:1000C00018C1029B16C1A4E0A40FC95FDF4FA8832B
:1000D000C750D0404F3819F4F23071F41BC1C85FDB
:1000E000DF4FA881C850D040AA2331F060EC640FE4
:1000F000603110F4F1E050E050FFE150C85FDF4F95
:10010000B881C850D040BB2349F060EC6E0F60311D
:1001100028F4852F6EE109D1EAE9E90FC95FDF4FC5
:10012000A881C750D040EA1728F4852F6EE1FDD092
:10013000EAE9E90FE41708F442C0F1133DC0452F86
:10014000440F440F440F4095453568F4842F6DEFFC
:10015000E3D08150CE5FDF4F8883C250D040842FE0
:1001600063E0DAD00FC04A3AA0F44555842F63E02B
:10017000D3D0CF5FDF4F8883C150D040842F6DEF45
:10018000CBD08150CD5FDF4F8883C350D04040E05B
:1001900024C04A5A842F63E0BFD0CE5FDF4F8883EC
:1001A000C250D040842F6DEFB7D08150CF5FDF4F6A
:1001B0008883C150D040EBCFF13071F401C050E0E2
:1001C000852F6CEFA9D08150CE5FDF4F8883C2505E
:1001D000D040F1E0E4EADBCFF2E0852F63E0A5D088
:1001E000892F6CEE99D08A5660E0F23009F048C051
:1001F000CE5FDF4F1883C250D040CF5FDF4F1883F0
:10020000C150D040CD5FDF4F1883C350D040C85F8E
:10021000DF4FB881C850D040BB2379F070EC760F27
:10022000703158F4CE5FDF4F8883C250D04078E2FF
:10023000CF5FDF4F7883C150D040641307C0AFEF6A
:10024000CF5FDF4FA883C150D0401AC06F3849F04C
:10025000641770F0C95FDF4FB881C750D040B61740
:1002600038F07FEFCD5FDF4F7883C350D04008C0B8
:10027000E61306C0AFEFCE5FDF4FA883C250D04079
:100280002C2F3D2F2F5F3F4FA22FB32F9D912A2F51
:100290003B2F78E097FF0BC0109A00000000000091
:1002A0000000000000000000109800000AC0109A32
:1002B0000000109800000000000000000000000096
:1002C0000000990F715031F7CA5FDF4FB881C650F7
:1002D000D040B213D9CF6F5F603909F086CF6FE796
:1002E00078E381E0615070408040E1F700C0000099
:1002F000C1CE019B09C0442339F04150C95FDF4F93
:100300001883C750D040E6CE029BF8CF4F38B0F7E5
:100310004F5FF4CFF0E0EFCE002780FD060F660FB1
:1003200011F08695D1F7802F0895991B79E004C0CC
:10033000991F961708F0961B881F7A95C9F7809524
:060340000895F894FFCFC0
:00000001FF
